{
  "_format": "hh-sol-artifact-1",
  "contractName": "PredictionNFT",
  "sourceName": "contracts/PredictionNFT.sol",
  "abi": [
    {
      "inputs": [],
      "stateMutability": "nonpayable",
      "type": "constructor"
    },
    {
      "inputs": [],
      "name": "AccessControlBadConfirmation",
      "type": "error"
    },
    {
      "inputs": [
        {
          "internalType": "address",
          "name": "account",
          "type": "address"
        },
        {
          "internalType": "bytes32",
          "name": "neededRole",
          "type": "bytes32"
        }
      ],
      "name": "AccessControlUnauthorizedAccount",
      "type": "error"
    },
    {
      "inputs": [
        {
          "internalType": "address",
          "name": "sender",
          "type": "address"
        },
        {
          "internalType": "uint256",
          "name": "tokenId",
          "type": "uint256"
        },
        {
          "internalType": "address",
          "name": "owner",
          "type": "address"
        }
      ],
      "name": "ERC721IncorrectOwner",
      "type": "error"
    },
    {
      "inputs": [
        {
          "internalType": "address",
          "name": "operator",
          "type": "address"
        },
        {
          "internalType": "uint256",
          "name": "tokenId",
          "type": "uint256"
        }
      ],
      "name": "ERC721InsufficientApproval",
      "type": "error"
    },
    {
      "inputs": [
        {
          "internalType": "address",
          "name": "approver",
          "type": "address"
        }
      ],
      "name": "ERC721InvalidApprover",
      "type": "error"
    },
    {
      "inputs": [
        {
          "internalType": "address",
          "name": "operator",
          "type": "address"
        }
      ],
      "name": "ERC721InvalidOperator",
      "type": "error"
    },
    {
      "inputs": [
        {
          "internalType": "address",
          "name": "owner",
          "type": "address"
        }
      ],
      "name": "ERC721InvalidOwner",
      "type": "error"
    },
    {
      "inputs": [
        {
          "internalType": "address",
          "name": "receiver",
          "type": "address"
        }
      ],
      "name": "ERC721InvalidReceiver",
      "type": "error"
    },
    {
      "inputs": [
        {
          "internalType": "address",
          "name": "sender",
          "type": "address"
        }
      ],
      "name": "ERC721InvalidSender",
      "type": "error"
    },
    {
      "inputs": [
        {
          "internalType": "uint256",
          "name": "tokenId",
          "type": "uint256"
        }
      ],
      "name": "ERC721NonexistentToken",
      "type": "error"
    },
    {
      "inputs": [],
      "name": "EnforcedPause",
      "type": "error"
    },
    {
      "inputs": [],
      "name": "ExpectedPause",
      "type": "error"
    },
    {
      "inputs": [],
      "name": "ReentrancyGuardReentrantCall",
      "type": "error"
    },
    {
      "anonymous": false,
      "inputs": [
        {
          "indexed": true,
          "internalType": "address",
          "name": "owner",
          "type": "address"
        },
        {
          "indexed": true,
          "internalType": "address",
          "name": "approved",
          "type": "address"
        },
        {
          "indexed": true,
          "internalType": "uint256",
          "name": "tokenId",
          "type": "uint256"
        }
      ],
      "name": "Approval",
      "type": "event"
    },
    {
      "anonymous": false,
      "inputs": [
        {
          "indexed": true,
          "internalType": "address",
          "name": "owner",
          "type": "address"
        },
        {
          "indexed": true,
          "internalType": "address",
          "name": "operator",
          "type": "address"
        },
        {
          "indexed": false,
          "internalType": "bool",
          "name": "approved",
          "type": "bool"
        }
      ],
      "name": "ApprovalForAll",
      "type": "event"
    },
    {
      "anonymous": false,
      "inputs": [
        {
          "indexed": false,
          "internalType": "address",
          "name": "account",
          "type": "address"
        }
      ],
      "name": "Paused",
      "type": "event"
    },
    {
      "anonymous": false,
      "inputs": [
        {
          "indexed": false,
          "internalType": "bytes32",
          "name": "predictionHash",
          "type": "bytes32"
        },
        {
          "indexed": false,
          "internalType": "string",
          "name": "reason",
          "type": "string"
        }
      ],
      "name": "PredictionHashRejected",
      "type": "event"
    },
    {
      "anonymous": false,
      "inputs": [
        {
          "indexed": true,
          "internalType": "address",
          "name": "owner",
          "type": "address"
        },
        {
          "indexed": true,
          "internalType": "uint256",
          "name": "tokenId",
          "type": "uint256"
        },
        {
          "indexed": false,
          "internalType": "string",
          "name": "predictionId",
          "type": "string"
        },
        {
          "indexed": false,
          "internalType": "bytes32",
          "name": "predictionHash",
          "type": "bytes32"
        },
        {
          "indexed": false,
          "internalType": "uint256",
          "name": "timestamp",
          "type": "uint256"
        }
      ],
      "name": "PredictionMinted",
      "type": "event"
    },
    {
      "anonymous": false,
      "inputs": [
        {
          "indexed": true,
          "internalType": "uint256",
          "name": "tokenId",
          "type": "uint256"
        },
        {
          "indexed": false,
          "internalType": "string",
          "name": "predictionId",
          "type": "string"
        }
      ],
      "name": "PredictionUnlocked",
      "type": "event"
    },
    {
      "anonymous": false,
      "inputs": [
        {
          "indexed": true,
          "internalType": "bytes32",
          "name": "role",
          "type": "bytes32"
        },
        {
          "indexed": true,
          "internalType": "bytes32",
          "name": "previousAdminRole",
          "type": "bytes32"
        },
        {
          "indexed": true,
          "internalType": "bytes32",
          "name": "newAdminRole",
          "type": "bytes32"
        }
      ],
      "name": "RoleAdminChanged",
      "type": "event"
    },
    {
      "anonymous": false,
      "inputs": [
        {
          "indexed": true,
          "internalType": "bytes32",
          "name": "role",
          "type": "bytes32"
        },
        {
          "indexed": true,
          "internalType": "address",
          "name": "account",
          "type": "address"
        },
        {
          "indexed": true,
          "internalType": "address",
          "name": "sender",
          "type": "address"
        }
      ],
      "name": "RoleGranted",
      "type": "event"
    },
    {
      "anonymous": false,
      "inputs": [
        {
          "indexed": true,
          "internalType": "bytes32",
          "name": "role",
          "type": "bytes32"
        },
        {
          "indexed": true,
          "internalType": "address",
          "name": "account",
          "type": "address"
        },
        {
          "indexed": true,
          "internalType": "address",
          "name": "sender",
          "type": "address"
        }
      ],
      "name": "RoleRevoked",
      "type": "event"
    },
    {
      "anonymous": false,
      "inputs": [
        {
          "indexed": true,
          "internalType": "address",
          "name": "from",
          "type": "address"
        },
        {
          "indexed": true,
          "internalType": "address",
          "name": "to",
          "type": "address"
        },
        {
          "indexed": true,
          "internalType": "uint256",
          "name": "tokenId",
          "type": "uint256"
        }
      ],
      "name": "Transfer",
      "type": "event"
    },
    {
      "anonymous": false,
      "inputs": [
        {
          "indexed": false,
          "internalType": "address",
          "name": "account",
          "type": "address"
        }
      ],
      "name": "Unpaused",
      "type": "event"
    },
    {
      "inputs": [],
      "name": "ADMIN_ROLE",
      "outputs": [
        {
          "internalType": "bytes32",
          "name": "",
          "type": "bytes32"
        }
      ],
      "stateMutability": "view",
      "type": "function"
    },
    {
      "inputs": [],
      "name": "DEFAULT_ADMIN_ROLE",
      "outputs": [
        {
          "internalType": "bytes32",
          "name": "",
          "type": "bytes32"
        }
      ],
      "stateMutability": "view",
      "type": "function"
    },
    {
      "inputs": [],
      "name": "MINTER_ROLE",
      "outputs": [
        {
          "internalType": "bytes32",
          "name": "",
          "type": "bytes32"
        }
      ],
      "stateMutability": "view",
      "type": "function"
    },
    {
      "inputs": [
        {
          "internalType": "address",
          "name": "to",
          "type": "address"
        },
        {
          "internalType": "uint256",
          "name": "tokenId",
          "type": "uint256"
        }
      ],
      "name": "approve",
      "outputs": [],
      "stateMutability": "nonpayable",
      "type": "function"
    },
    {
      "inputs": [
        {
          "internalType": "address",
          "name": "owner",
          "type": "address"
        }
      ],
      "name": "balanceOf",
      "outputs": [
        {
          "internalType": "uint256",
          "name": "",
          "type": "uint256"
        }
      ],
      "stateMutability": "view",
      "type": "function"
    },
    {
      "inputs": [
        {
          "internalType": "uint256",
          "name": "tokenId",
          "type": "uint256"
        }
      ],
      "name": "getApproved",
      "outputs": [
        {
          "internalType": "address",
          "name": "",
          "type": "address"
        }
      ],
      "stateMutability": "view",
      "type": "function"
    },
    {
      "inputs": [
        {
          "internalType": "uint256",
          "name": "tokenId",
          "type": "uint256"
        }
      ],
      "name": "getPrediction",
      "outputs": [
        {
          "components": [
            {
              "internalType": "string",
              "name": "predictionId",
              "type": "string"
            },
            {
              "internalType": "bytes32",
              "name": "predictionHash",
              "type": "bytes32"
            },
            {
              "internalType": "address",
              "name": "owner",
              "type": "address"
            },
            {
              "internalType": "uint256",
              "name": "timestamp",
              "type": "uint256"
            },
            {
              "internalType": "bool",
              "name": "unlocked",
              "type": "bool"
            },
            {
              "internalType": "string",
              "name": "metadataURI",
              "type": "string"
            }
          ],
          "internalType": "struct PredictionNFT.Prediction",
          "name": "",
          "type": "tuple"
        }
      ],
      "stateMutability": "view",
      "type": "function"
    },
    {
      "inputs": [
        {
          "internalType": "bytes32",
          "name": "role",
          "type": "bytes32"
        }
      ],
      "name": "getRoleAdmin",
      "outputs": [
        {
          "internalType": "bytes32",
          "name": "",
          "type": "bytes32"
        }
      ],
      "stateMutability": "view",
      "type": "function"
    },
    {
      "inputs": [
        {
          "internalType": "address",
          "name": "user",
          "type": "address"
        }
      ],
      "name": "getUserPredictions",
      "outputs": [
        {
          "internalType": "uint256[]",
          "name": "",
          "type": "uint256[]"
        }
      ],
      "stateMutability": "view",
      "type": "function"
    },
    {
      "inputs": [
        {
          "internalType": "bytes32",
          "name": "role",
          "type": "bytes32"
        },
        {
          "internalType": "address",
          "name": "account",
          "type": "address"
        }
      ],
      "name": "grantRole",
      "outputs": [],
      "stateMutability": "nonpayable",
      "type": "function"
    },
    {
      "inputs": [
        {
          "internalType": "bytes32",
          "name": "role",
          "type": "bytes32"
        },
        {
          "internalType": "address",
          "name": "account",
          "type": "address"
        }
      ],
      "name": "hasRole",
      "outputs": [
        {
          "internalType": "bool",
          "name": "",
          "type": "bool"
        }
      ],
      "stateMutability": "view",
      "type": "function"
    },
    {
      "inputs": [
        {
          "internalType": "bytes32",
          "name": "",
          "type": "bytes32"
        }
      ],
      "name": "hashToTokenId",
      "outputs": [
        {
          "internalType": "uint256",
          "name": "",
          "type": "uint256"
        }
      ],
      "stateMutability": "view",
      "type": "function"
    },
    {
      "inputs": [
        {
          "internalType": "address",
          "name": "owner",
          "type": "address"
        },
        {
          "internalType": "address",
          "name": "operator",
          "type": "address"
        }
      ],
      "name": "isApprovedForAll",
      "outputs": [
        {
          "internalType": "bool",
          "name": "",
          "type": "bool"
        }
      ],
      "stateMutability": "view",
      "type": "function"
    },
    {
      "inputs": [
        {
          "internalType": "bytes32",
          "name": "predictionHash",
          "type": "bytes32"
        }
      ],
      "name": "isPredictionUnique",
      "outputs": [
        {
          "internalType": "bool",
          "name": "",
          "type": "bool"
        }
      ],
      "stateMutability": "view",
      "type": "function"
    },
    {
      "inputs": [
        {
          "internalType": "address",
          "name": "to",
          "type": "address"
        },
        {
          "internalType": "string",
          "name": "predictionId",
          "type": "string"
        },
        {
          "internalType": "bytes32",
          "name": "predictionHash",
          "type": "bytes32"
        },
        {
          "internalType": "string",
          "name": "metadataURI",
          "type": "string"
        }
      ],
      "name": "mintPrediction",
      "outputs": [
        {
          "internalType": "uint256",
          "name": "",
          "type": "uint256"
        }
      ],
      "stateMutability": "nonpayable",
      "type": "function"
    },
    {
      "inputs": [],
      "name": "name",
      "outputs": [
        {
          "internalType": "string",
          "name": "",
          "type": "string"
        }
      ],
      "stateMutability": "view",
      "type": "function"
    },
    {
      "inputs": [
        {
          "internalType": "uint256",
          "name": "tokenId",
          "type": "uint256"
        }
      ],
      "name": "ownerOf",
      "outputs": [
        {
          "internalType": "address",
          "name": "",
          "type": "address"
        }
      ],
      "stateMutability": "view",
      "type": "function"
    },
    {
      "inputs": [],
      "name": "pause",
      "outputs": [],
      "stateMutability": "nonpayable",
      "type": "function"
    },
    {
      "inputs": [],
      "name": "paused",
      "outputs": [
        {
          "internalType": "bool",
          "name": "",
          "type": "bool"
        }
      ],
      "stateMutability": "view",
      "type": "function"
    },
    {
      "inputs": [
        {
          "internalType": "bytes32",
          "name": "",
          "type": "bytes32"
        }
      ],
      "name": "predictionHashExists",
      "outputs": [
        {
          "internalType": "bool",
          "name": "",
          "type": "bool"
        }
      ],
      "stateMutability": "view",
      "type": "function"
    },
    {
      "inputs": [
        {
          "internalType": "string",
          "name": "",
          "type": "string"
        }
      ],
      "name": "predictionIdToToken",
      "outputs": [
        {
          "internalType": "uint256",
          "name": "",
          "type": "uint256"
        }
      ],
      "stateMutability": "view",
      "type": "function"
    },
    {
      "inputs": [
        {
          "internalType": "uint256",
          "name": "",
          "type": "uint256"
        }
      ],
      "name": "predictions",
      "outputs": [
        {
          "internalType": "string",
          "name": "predictionId",
          "type": "string"
        },
        {
          "internalType": "bytes32",
          "name": "predictionHash",
          "type": "bytes32"
        },
        {
          "internalType": "address",
          "name": "owner",
          "type": "address"
        },
        {
          "internalType": "uint256",
          "name": "timestamp",
          "type": "uint256"
        },
        {
          "internalType": "bool",
          "name": "unlocked",
          "type": "bool"
        },
        {
          "internalType": "string",
          "name": "metadataURI",
          "type": "string"
        }
      ],
      "stateMutability": "view",
      "type": "function"
    },
    {
      "inputs": [
        {
          "internalType": "bytes32",
          "name": "role",
          "type": "bytes32"
        },
        {
          "internalType": "address",
          "name": "callerConfirmation",
          "type": "address"
        }
      ],
      "name": "renounceRole",
      "outputs": [],
      "stateMutability": "nonpayable",
      "type": "function"
    },
    {
      "inputs": [
        {
          "internalType": "bytes32",
          "name": "role",
          "type": "bytes32"
        },
        {
          "internalType": "address",
          "name": "account",
          "type": "address"
        }
      ],
      "name": "revokeRole",
      "outputs": [],
      "stateMutability": "nonpayable",
      "type": "function"
    },
    {
      "inputs": [
        {
          "internalType": "address",
          "name": "from",
          "type": "address"
        },
        {
          "internalType": "address",
          "name": "to",
          "type": "address"
        },
        {
          "internalType": "uint256",
          "name": "tokenId",
          "type": "uint256"
        }
      ],
      "name": "safeTransferFrom",
      "outputs": [],
      "stateMutability": "nonpayable",
      "type": "function"
    },
    {
      "inputs": [
        {
          "internalType": "address",
          "name": "from",
          "type": "address"
        },
        {
          "internalType": "address",
          "name": "to",
          "type": "address"
        },
        {
          "internalType": "uint256",
          "name": "tokenId",
          "type": "uint256"
        },
        {
          "internalType": "bytes",
          "name": "data",
          "type": "bytes"
        }
      ],
      "name": "safeTransferFrom",
      "outputs": [],
      "stateMutability": "nonpayable",
      "type": "function"
    },
    {
      "inputs": [
        {
          "internalType": "address",
          "name": "operator",
          "type": "address"
        },
        {
          "internalType": "bool",
          "name": "approved",
          "type": "bool"
        }
      ],
      "name": "setApprovalForAll",
      "outputs": [],
      "stateMutability": "nonpayable",
      "type": "function"
    },
    {
      "inputs": [
        {
          "internalType": "bytes4",
          "name": "interfaceId",
          "type": "bytes4"
        }
      ],
      "name": "supportsInterface",
      "outputs": [
        {
          "internalType": "bool",
          "name": "",
          "type": "bool"
        }
      ],
      "stateMutability": "view",
      "type": "function"
    },
    {
      "inputs": [],
      "name": "symbol",
      "outputs": [
        {
          "internalType": "string",
          "name": "",
          "type": "string"
        }
      ],
      "stateMutability": "view",
      "type": "function"
    },
    {
      "inputs": [
        {
          "internalType": "uint256",
          "name": "tokenId",
          "type": "uint256"
        }
      ],
      "name": "tokenURI",
      "outputs": [
        {
          "internalType": "string",
          "name": "",
          "type": "string"
        }
      ],
      "stateMutability": "view",
      "type": "function"
    },
    {
      "inputs": [],
      "name": "totalSupply",
      "outputs": [
        {
          "internalType": "uint256",
          "name": "",
          "type": "uint256"
        }
      ],
      "stateMutability": "view",
      "type": "function"
    },
    {
      "inputs": [
        {
          "internalType": "address",
          "name": "from",
          "type": "address"
        },
        {
          "internalType": "address",
          "name": "to",
          "type": "address"
        },
        {
          "internalType": "uint256",
          "name": "tokenId",
          "type": "uint256"
        }
      ],
      "name": "transferFrom",
      "outputs": [],
      "stateMutability": "nonpayable",
      "type": "function"
    },
    {
      "inputs": [
        {
          "internalType": "uint256",
          "name": "tokenId",
          "type": "uint256"
        }
      ],
      "name": "unlockPrediction",
      "outputs": [],
      "stateMutability": "nonpayable",
      "type": "function"
    },
    {
      "inputs": [],
      "name": "unpause",
      "outputs": [],
      "stateMutability": "nonpayable",
      "type": "function"
    },
    {
      "inputs": [
        {
          "internalType": "string",
          "name": "predictionData",
          "type": "string"
        },
        {
          "internalType": "bytes32",
          "name": "expectedHash",
          "type": "bytes32"
        }
      ],
      "name": "verifyPredictionHash",
      "outputs": [
        {
          "internalType": "bool",
          "name": "",
          "type": "bool"
        }
      ],
      "stateMutability": "pure",
      "type": "function"
    }
  ],
  "bytecode": "0x60806040523480156200001157600080fd5b506040518060400160405280601681526020017f576f726c644375703230323650726564696374696f6e00000000000000000000815250604051806040016040528060048152602001632ba1991b60e11b815250816000908162000076919062000253565b50600162000085828262000253565b50506001600855506200009a600033620000fb565b50620000c77fa49807205ce4d355092ef5a8a18f56e8913cf4a201fbe287825b095693c2177533620000fb565b50620000f47f9f2df0fed2c77648de5860a4cc508cd0818c85b8b8a1ab4ceeef8d981c8956a633620000fb565b506200031f565b60008281526006602090815260408083206001600160a01b038516845290915281205460ff16620001a45760008381526006602090815260408083206001600160a01b03861684529091529020805460ff191660011790556200015b3390565b6001600160a01b0316826001600160a01b0316847f2f8788117e7eff1d82e926ec794901d17c78024a50270940304540a733656f0d60405160405180910390a4506001620001a8565b5060005b92915050565b634e487b7160e01b600052604160045260246000fd5b600181811c90821680620001d957607f821691505b602082108103620001fa57634e487b7160e01b600052602260045260246000fd5b50919050565b601f8211156200024e57600081815260208120601f850160051c81016020861015620002295750805b601f850160051c820191505b818110156200024a5782815560010162000235565b5050505b505050565b81516001600160401b038111156200026f576200026f620001ae565b6200028781620002808454620001c4565b8462000200565b602080601f831160018114620002bf5760008415620002a65750858301515b600019600386901b1c1916600185901b1785556200024a565b600085815260208120601f198616915b82811015620002f057888601518255948401946001909101908401620002cf565b50858210156200030f5787850151600019600388901b60f8161c191681555b5050505050600190811b01905550565b6123a2806200032f6000396000f3fe608060405234801561001057600080fd5b50600436106102105760003560e01c80636352211e11610125578063b88d4fde116100ad578063d547741f1161007c578063d547741f146104df578063e985e9c5146104f2578063f51f74a914610505578063f87e822314610525578063fe83bece1461053857600080fd5b8063b88d4fde14610472578063c285f85314610485578063c87b56dd146104a5578063d5391393146104b857600080fd5b806391d14854116100f457806391d148541461042957806395d89b411461043c578063a217fddf14610444578063a22cb4651461044c578063aebb28151461045f57600080fd5b80636352211e146103d457806370a08231146103e757806375b238fc146103fa5780638456cb591461042157600080fd5b8063248a9ca3116101a857806342842e0e1161017757806342842e0e146103545780635c8bd5b6146103675780635c975abb1461037a5780635d30c0671461038557806363214a4b146103a957600080fd5b8063248a9ca3146103035780632f2ff15d1461032657806336568abe146103395780633f4ba83a1461034c57600080fd5b8063095ea7b3116101e4578063095ea7b3146102a65780630ce9f5bc146102bb57806318160ddd146102de57806323b872dd146102f057600080fd5b80624fbbb01461021557806301ffc9a71461024357806306fdde0314610266578063081812fc1461027b575b600080fd5b610228610223366004611baf565b610558565b60405161023a96959493929190611c18565b60405180910390f35b610256610251366004611c85565b6106ae565b604051901515815260200161023a565b61026e6106bf565b60405161023a9190611ca2565b61028e610289366004611baf565b610751565b6040516001600160a01b03909116815260200161023a565b6102b96102b4366004611cd1565b61077a565b005b6102566102c9366004611baf565b600b6020526000908152604090205460ff1681565b6009545b60405190815260200161023a565b6102b96102fe366004611cfb565b610789565b6102e2610311366004611baf565b60009081526006602052604090206001015490565b6102b9610334366004611d37565b610819565b6102b9610347366004611d37565b61083e565b6102b9610876565b6102b9610362366004611cfb565b6108ab565b6102e2610375366004611e0f565b6108c6565b60075460ff16610256565b610256610393366004611baf565b6000908152600b602052604090205460ff161590565b6102e26103b7366004611e8d565b8051602081830181018051600e8252928201919093012091525481565b61028e6103e2366004611baf565b610c62565b6102e26103f5366004611ec2565b610c6d565b6102e27fa49807205ce4d355092ef5a8a18f56e8913cf4a201fbe287825b095693c2177581565b6102b9610cb5565b610256610437366004611d37565b610ce7565b61026e610d12565b6102e2600081565b6102b961045a366004611edd565b610d21565b61025661046d366004611f19565b610d2c565b6102b9610480366004611f5e565b610d63565b610498610493366004611ec2565b610d7b565b60405161023a9190611fce565b61026e6104b3366004611baf565b610de7565b6102e27f9f2df0fed2c77648de5860a4cc508cd0818c85b8b8a1ab4ceeef8d981c8956a681565b6102b96104ed366004611d37565b610e5c565b610256610500366004612012565b610e81565b6102e2610513366004611baf565b600c6020526000908152604090205481565b6102b9610533366004611baf565b610eaf565b61054b610546366004611baf565b610fdd565b60405161023a919061203c565b600a60205260009081526040902080548190610573906120b0565b80601f016020809104026020016040519081016040528092919081815260200182805461059f906120b0565b80156105ec5780601f106105c1576101008083540402835291602001916105ec565b820191906000526020600020905b8154815290600101906020018083116105cf57829003601f168201915b5050506001840154600285015460038601546004870154600588018054979894976001600160a01b03909416965091945060ff16929161062b906120b0565b80601f0160208091040260200160405190810160405280929190818152602001828054610657906120b0565b80156106a45780601f10610679576101008083540402835291602001916106a4565b820191906000526020600020905b81548152906001019060200180831161068757829003601f168201915b5050505050905086565b60006106b9826111ed565b92915050565b6060600080546106ce906120b0565b80601f01602080910402602001604051908101604052809291908181526020018280546106fa906120b0565b80156107475780601f1061071c57610100808354040283529160200191610747565b820191906000526020600020905b81548152906001019060200180831161072a57829003601f168201915b5050505050905090565b600061075c82611212565b506000828152600460205260409020546001600160a01b03166106b9565b61078582823361124b565b5050565b6001600160a01b0382166107b857604051633250574960e11b8152600060048201526024015b60405180910390fd5b60006107c5838333611258565b9050836001600160a01b0316816001600160a01b031614610813576040516364283d7b60e01b81526001600160a01b03808616600483015260248201849052821660448201526064016107af565b50505050565b60008281526006602052604090206001015461083481611351565b610813838361135b565b6001600160a01b03811633146108675760405163334bd91960e11b815260040160405180910390fd5b61087182826113ef565b505050565b7fa49807205ce4d355092ef5a8a18f56e8913cf4a201fbe287825b095693c217756108a081611351565b6108a861145c565b50565b61087183838360405180602001604052806000815250610d63565b60007f9f2df0fed2c77648de5860a4cc508cd0818c85b8b8a1ab4ceeef8d981c8956a66108f281611351565b6108fa6114ae565b6109026114d4565b6001600160a01b0386166109585760405162461bcd60e51b815260206004820152601b60248201527f43616e6e6f74206d696e7420746f207a65726f2061646472657373000000000060448201526064016107af565b60008551116109a95760405162461bcd60e51b815260206004820152601d60248201527f50726564696374696f6e2049442063616e6e6f7420626520656d70747900000060448201526064016107af565b836109f65760405162461bcd60e51b815260206004820152601e60248201527f50726564696374696f6e20686173682063616e6e6f74206265207a65726f000060448201526064016107af565b6000848152600b602052604090205460ff1615610ab9577fbc9750aada4428603ae07a56fd8cc619bb268e23fa9157b5d650b08cbf359af084604051610a69918152604060208201819052601390820152724861736820616c72656164792065786973747360681b606082015260800190565b60405180910390a160405162461bcd60e51b815260206004820152601960248201527f50726564696374696f6e20616c7265616479206578697374730000000000000060448201526064016107af565b600980549081906000610acb836120ea565b9190505550610ada87826114fe565b6040805160c08101825287815260208082018890526001600160a01b038a168284015242606083015260006080830181905260a08301889052848152600a9091529190912081518190610b2d9082612157565b506020820151600182015560408201516002820180546001600160a01b0319166001600160a01b0390921691909117905560608201516003820155608082015160048201805460ff191691151591909117905560a08201516005820190610b949082612157565b5050506000858152600b60209081526040808320805460ff19166001908117909155600c83528184208590556001600160a01b038b168452600d83528184208054918201815584529190922001829055518190600e90610bf5908990612217565b90815260200160405180910390208190555080876001600160a01b03167fbf77859dd6b81907a58187624fc771bc278e9156f17c1f26048555c91ede6f0d888842604051610c4593929190612233565b60405180910390a39150610c596001600855565b50949350505050565b60006106b982611212565b60006001600160a01b038216610c99576040516322718ad960e21b8152600060048201526024016107af565b506001600160a01b031660009081526003602052604090205490565b7fa49807205ce4d355092ef5a8a18f56e8913cf4a201fbe287825b095693c21775610cdf81611351565b6108a8611518565b60009182526006602090815260408084206001600160a01b0393909316845291905290205460ff1690565b6060600180546106ce906120b0565b610785338383611555565b60008083604051602001610d409190612217565b60408051601f198184030181529190528051602090910120831491505092915050565b610d6e848484610789565b61081333858585856115f4565b6001600160a01b0381166000908152600d6020908152604091829020805483518184028101840190945280845260609392830182828015610ddb57602002820191906000526020600020905b815481526020019060010190808311610dc7575b50505050509050919050565b6060610df282611212565b506000610e0a60408051602081019091526000815290565b90506000815111610e2a5760405180602001604052806000815250610e55565b80610e348461171f565b604051602001610e45929190612258565b6040516020818303038152906040525b9392505050565b600082815260066020526040902060010154610e7781611351565b61081383836113ef565b6001600160a01b03918216600090815260056020908152604080832093909416825291909152205460ff1690565b7f9f2df0fed2c77648de5860a4cc508cd0818c85b8b8a1ab4ceeef8d981c8956a6610ed981611351565b610ee16114ae565b610eea826117b2565b610f2d5760405162461bcd60e51b8152602060048201526014602482015273151bdad95b88191bd95cc81b9bdd08195e1a5cdd60621b60448201526064016107af565b6000828152600a602052604090206004015460ff1615610f825760405162461bcd60e51b815260206004820152601060248201526f105b1c9958591e481d5b9b1bd8dad95960821b60448201526064016107af565b6000828152600a60205260409081902060048101805460ff19166001179055905183917f3d9d502707f1a17837b93fb73f47db7bc6c2612eb91a0828d5f1dac4a149432691610fd19190612287565b60405180910390a25050565b6110246040518060c00160405280606081526020016000801916815260200160006001600160a01b0316815260200160008152602001600015158152602001606081525090565b61102d826117b2565b6110705760405162461bcd60e51b8152602060048201526014602482015273151bdad95b88191bd95cc81b9bdd08195e1a5cdd60621b60448201526064016107af565b6000828152600a602052604090819020815160c08101909252805482908290611098906120b0565b80601f01602080910402602001604051908101604052809291908181526020018280546110c4906120b0565b80156111115780601f106110e657610100808354040283529160200191611111565b820191906000526020600020905b8154815290600101906020018083116110f457829003601f168201915b50505091835250506001820154602082015260028201546001600160a01b0316604082015260038201546060820152600482015460ff161515608082015260058201805460a090920191611164906120b0565b80601f0160208091040260200160405190810160405280929190818152602001828054611190906120b0565b80156111dd5780601f106111b2576101008083540402835291602001916111dd565b820191906000526020600020905b8154815290600101906020018083116111c057829003601f168201915b5050505050815250509050919050565b60006001600160e01b03198216637965db0b60e01b14806106b957506106b9826117de565b6000818152600260205260408120546001600160a01b0316806106b957604051637e27328960e01b8152600481018490526024016107af565b610871838383600161182e565b6000828152600260205260408120546001600160a01b039081169083161561128557611285818486611934565b6001600160a01b038116156112c3576112a260008560008061182e565b6001600160a01b038116600090815260036020526040902080546000190190555b6001600160a01b038516156112f2576001600160a01b0385166000908152600360205260409020805460010190555b60008481526002602052604080822080546001600160a01b0319166001600160a01b0389811691821790925591518793918516917fddf252ad1be2c89b69c2b068fc378daa952ba7f163c4a11628f55a4df523b3ef91a4949350505050565b6108a88133611998565b60006113678383610ce7565b6113e75760008381526006602090815260408083206001600160a01b03861684529091529020805460ff1916600117905561139f3390565b6001600160a01b0316826001600160a01b0316847f2f8788117e7eff1d82e926ec794901d17c78024a50270940304540a733656f0d60405160405180910390a45060016106b9565b5060006106b9565b60006113fb8383610ce7565b156113e75760008381526006602090815260408083206001600160a01b0386168085529252808320805460ff1916905551339286917ff6391f5c32d9c69d2a47ea670b442974b53935d1edc7fd64eb21e047a839171b9190a45060016106b9565b6114646119d1565b6007805460ff191690557f5db9ee0a495bf2e6ff9c91a7834c1ba4fdd244a5e8aa4e537bd38aeae4b073aa335b6040516001600160a01b03909116815260200160405180910390a1565b60075460ff16156114d25760405163d93c066560e01b815260040160405180910390fd5b565b6002600854036114f757604051633ee5aeb560e01b815260040160405180910390fd5b6002600855565b6107858282604051806020016040528060008152506119f4565b6115206114ae565b6007805460ff191660011790557f62e78cea01bee320cd4e420270b5ea74000d11b0c9f74754ebdbfc544b05a2586114913390565b6001600160a01b03821661158757604051630b61174360e31b81526001600160a01b03831660048201526024016107af565b6001600160a01b03838116600081815260056020908152604080832094871680845294825291829020805460ff191686151590811790915591519182527f17307eab39ab6107e8899845ad3d59bd9653f200f220920489ca2b5937696c31910160405180910390a3505050565b6001600160a01b0383163b1561171857604051630a85bd0160e11b81526001600160a01b0384169063150b7a0290611636908890889087908790600401612312565b6020604051808303816000875af1925050508015611671575060408051601f3d908101601f1916820190925261166e9181019061234f565b60015b6116da573d80801561169f576040519150601f19603f3d011682016040523d82523d6000602084013e6116a4565b606091505b5080516000036116d257604051633250574960e11b81526001600160a01b03851660048201526024016107af565b805160208201fd5b6001600160e01b03198116630a85bd0160e11b1461171657604051633250574960e11b81526001600160a01b03851660048201526024016107af565b505b5050505050565b6060600061172c83611a0c565b600101905060008167ffffffffffffffff81111561174c5761174c611d63565b6040519080825280601f01601f191660200182016040528015611776576020820181803683370190505b5090508181016020015b600019016f181899199a1a9b1b9c1cb0b131b232b360811b600a86061a8153600a850494508461178057509392505050565b6000600954821080156106b95750506000908152600260205260409020546001600160a01b0316151590565b60006001600160e01b031982166380ac58cd60e01b148061180f57506001600160e01b03198216635b5e139f60e01b145b806106b957506301ffc9a760e01b6001600160e01b03198316146106b9565b808061184257506001600160a01b03821615155b1561190457600061185284611212565b90506001600160a01b0383161580159061187e5750826001600160a01b0316816001600160a01b031614155b8015611891575061188f8184610e81565b155b156118ba5760405163a9fbf51f60e01b81526001600160a01b03841660048201526024016107af565b81156119025783856001600160a01b0316826001600160a01b03167f8c5be1e5ebec7d5bd14f71427d1e84f3dd0314c0f7b2291e5b200ac8c7c3b92560405160405180910390a45b505b5050600090815260046020526040902080546001600160a01b0319166001600160a01b0392909216919091179055565b61193f838383611ae4565b610871576001600160a01b03831661196d57604051637e27328960e01b8152600481018290526024016107af565b60405163177e802f60e01b81526001600160a01b0383166004820152602481018290526044016107af565b6119a28282610ce7565b6107855760405163e2517d3f60e01b81526001600160a01b0382166004820152602481018390526044016107af565b60075460ff166114d257604051638dfc202b60e01b815260040160405180910390fd5b6119fe8383611b4a565b6108713360008585856115f4565b60008072184f03e93ff9f4daa797ed6e38ed64bf6a1f0160401b8310611a4b5772184f03e93ff9f4daa797ed6e38ed64bf6a1f0160401b830492506040015b6d04ee2d6d415b85acef81000000008310611a77576d04ee2d6d415b85acef8100000000830492506020015b662386f26fc100008310611a9557662386f26fc10000830492506010015b6305f5e1008310611aad576305f5e100830492506008015b6127108310611ac157612710830492506004015b60648310611ad3576064830492506002015b600a83106106b95760010192915050565b60006001600160a01b03831615801590611b425750826001600160a01b0316846001600160a01b03161480611b1e5750611b1e8484610e81565b80611b4257506000828152600460205260409020546001600160a01b038481169116145b949350505050565b6001600160a01b038216611b7457604051633250574960e11b8152600060048201526024016107af565b6000611b8283836000611258565b90506001600160a01b03811615610871576040516339e3563760e11b8152600060048201526024016107af565b600060208284031215611bc157600080fd5b5035919050565b60005b83811015611be3578181015183820152602001611bcb565b50506000910152565b60008151808452611c04816020860160208601611bc8565b601f01601f19169290920160200192915050565b60c081526000611c2b60c0830189611bec565b602083018890526001600160a01b038716604084015260608301869052841515608084015282810360a0840152611c628185611bec565b9998505050505050505050565b6001600160e01b0319811681146108a857600080fd5b600060208284031215611c9757600080fd5b8135610e5581611c6f565b602081526000610e556020830184611bec565b80356001600160a01b0381168114611ccc57600080fd5b919050565b60008060408385031215611ce457600080fd5b611ced83611cb5565b946020939093013593505050565b600080600060608486031215611d1057600080fd5b611d1984611cb5565b9250611d2760208501611cb5565b9150604084013590509250925092565b60008060408385031215611d4a57600080fd5b82359150611d5a60208401611cb5565b90509250929050565b634e487b7160e01b600052604160045260246000fd5b600067ffffffffffffffff80841115611d9457611d94611d63565b604051601f8501601f19908116603f01168101908282118183101715611dbc57611dbc611d63565b81604052809350858152868686011115611dd557600080fd5b858560208301376000602087830101525050509392505050565b600082601f830112611e0057600080fd5b610e5583833560208501611d79565b60008060008060808587031215611e2557600080fd5b611e2e85611cb5565b9350602085013567ffffffffffffffff80821115611e4b57600080fd5b611e5788838901611def565b9450604087013593506060870135915080821115611e7457600080fd5b50611e8187828801611def565b91505092959194509250565b600060208284031215611e9f57600080fd5b813567ffffffffffffffff811115611eb657600080fd5b611b4284828501611def565b600060208284031215611ed457600080fd5b610e5582611cb5565b60008060408385031215611ef057600080fd5b611ef983611cb5565b915060208301358015158114611f0e57600080fd5b809150509250929050565b60008060408385031215611f2c57600080fd5b823567ffffffffffffffff811115611f4357600080fd5b611f4f85828601611def565b95602094909401359450505050565b60008060008060808587031215611f7457600080fd5b611f7d85611cb5565b9350611f8b60208601611cb5565b925060408501359150606085013567ffffffffffffffff811115611fae57600080fd5b8501601f81018713611fbf57600080fd5b611e8187823560208401611d79565b6020808252825182820181905260009190848201906040850190845b8181101561200657835183529284019291840191600101611fea565b50909695505050505050565b6000806040838503121561202557600080fd5b61202e83611cb5565b9150611d5a60208401611cb5565b602081526000825160c0602084015261205860e0840182611bec565b90506020840151604084015260018060a01b036040850151166060840152606084015160808401526080840151151560a084015260a0840151601f198483030160c08501526120a78282611bec565b95945050505050565b600181811c908216806120c457607f821691505b6020821081036120e457634e487b7160e01b600052602260045260246000fd5b50919050565b60006001820161210a57634e487b7160e01b600052601160045260246000fd5b5060010190565b601f82111561087157600081815260208120601f850160051c810160208610156121385750805b601f850160051c820191505b8181101561171657828155600101612144565b815167ffffffffffffffff81111561217157612171611d63565b6121858161217f84546120b0565b84612111565b602080601f8311600181146121ba57600084156121a25750858301515b600019600386901b1c1916600185901b178555611716565b600085815260208120601f198616915b828110156121e9578886015182559484019460019091019084016121ca565b50858210156122075787850151600019600388901b60f8161c191681555b5050505050600190811b01905550565b60008251612229818460208701611bc8565b9190910192915050565b6060815260006122466060830186611bec565b60208301949094525060400152919050565b6000835161226a818460208801611bc8565b83519083019061227e818360208801611bc8565b01949350505050565b600060208083526000845461229b816120b0565b808487015260406001808416600081146122bc57600181146122d657612304565b60ff1985168984015283151560051b890183019550612304565b896000528660002060005b858110156122fc5781548b82018601529083019088016122e1565b8a0184019650505b509398975050505050505050565b6001600160a01b038581168252841660208201526040810183905260806060820181905260009061234590830184611bec565b9695505050505050565b60006020828403121561236157600080fd5b8151610e5581611c6f56fea26469706673582212209e067c9b39ae33370b82835398d79d344169462a0950ca2285cdf2c014b734c964736f6c63430008140033",
  "linkReferences": {},
  "deployedLinkReferences": {}
}